:03000000020800F3
:0C080000787FE4F6D8FD758127020847D8
:1008E4001C0800FD00F500D5005500FF007F005FE7
:0E08F4000057005500FF000000FF000000FF4D
:10088C00C297E4F580C2937580FFC291D292E4F5D1
:10089C0024F525E52525E02408F808E6F5807F32C7
:1008AC007E001208C40525E52570020524C3940EAC
:0808BC00E524940040DD80D624
:1008C400E4FDFCC3ED9FEC9E5015E4FBFA0BBB006A
:0F08D400010ABA07F8BB08F50DBD00010C80E45E
:0108E30022F2
:10080C0002088CE493A3F8E493A34003F68001F26E
:10081C0008DFF48029E493A3F85407240CC8C333ED
:10082C00C4540F4420C8834004F456800146F6DFBC
:10083C00E4800B01020408102040809008E4E47E60
:10084C00019360BCA3FF543F30E509541FFEE493B1
:10085C00A360010ECF54C025E060A840B8E493A378
:10086C00FAE493A3F8E493A3C8C582C8CAC583CAA3
:10087C00F0A3C8C582C8CAC583CADFE9DEE780BE5B
:0109020000F4
:00000001FF
