:03000000020800F3
:0C080000787FE4F6D8FD75811F020847E0
:1008F5000A080076007900380038003F0A1200FE29
:0809050000FD00FB00F700EF0C
:10088C00C297E4F580C2937580FFC292E4F51CF523
:10089C001DD290AF1DEF25E02408F808E6F580C2C4
:1008AC0090D291EF25E02412F808E6F580C2917FF2
:1008BC00017E001208D5051DE51D7002051CC394B0
:0908CC0005E51C940040CA80C33C
:1008D500E4FDFCC3ED9FEC9E5015E4FBFA0BBB0059
:0F08E500010ABA01F8BBF4F50DBD00010C80E467
:0108F40022E1
:10080C0002088CE493A3F8E493A34003F68001F26E
:10081C0008DFF48029E493A3F85407240CC8C333ED
:10082C00C4540F4420C8834004F456800146F6DFBC
:10083C00E4800B01020408102040809008F5E47E4F
:10084C00019360BCA3FF543F30E509541FFEE493B1
:10085C00A360010ECF54C025E060A840B8E493A378
:10086C00FAE493A3F8E493A3C8C582C8CAC583CAA3
:10087C00F0A3C8C582C8CAC583CADFE9DEE780BE5B
:01090D0000E9
:00000001FF
