:03000000020800F3
:0C080000787FE4F6D8FD758125020847DA
:1008F7000A080076007900380038003F101200FE21
:0E09070000FD00FB00F700EF00DF00BF007FE7
:10088C00C297E4F580C2937580FFC292F522F523DE
:10089C00D290850980C290D291E52325E02412F8EC
:1008AC0008E6F580C29120A4EE7F027E001208D7E4
:1008BC0020A40F0523E5237002052275220054079E
:0B08CC00F5237F287E001208D780CCA7
:1008D700E4FDFCC3ED9FEC9E5015E4FBFA0BBB0057
:0F08E700010ABA07F8BB23F50DBD00010C80E430
:0108F60022DF
:10080C0002088CE493A3F8E493A34003F68001F26E
:10081C0008DFF48029E493A3F85407240CC8C333ED
:10082C00C4540F4420C8834004F456800146F6DFBC
:10083C00E4800B01020408102040809008F7E47E4D
:10084C00019360BCA3FF543F30E509541FFEE493B1
:10085C00A360010ECF54C025E060A840B8E493A378
:10086C00FAE493A3F8E493A3C8C582C8CAC583CAA3
:10087C00F0A3C8C582C8CAC583CADFE9DEE780BE5B
:0109150000E1
:00000001FF
