:030000000208B83B
:0C08B800787FE4F6D8FD7581420208FF4D
:100A22001408003F0006005B004F0066006D007D69
:100A32000007007F006F101C00FE00FD00FB00F7A6
:100A420000EF00DF00BF007F082C00010000000063
:060A52000000023403E87D
:10080000C297E4F580C2937580FFC292F538F5393E
:10081000E4F536F537D290AF37EF25E0242CF80811
:10082000E625E02408F808E6F580C290D291EF258D
:10083000E0241CF808E6F580C2917F017E00120AD0
:10084000590537E53770020536C39404E536940040
:1008500040C30539E5397002053864284538702AE7
:100860000535E53570020534FFAE347C277D101266
:1008700009448C348D357B007A00792C753F0075E6
:1008800040041209C6E4F538F53920A4837F077EB9
:1008900000120A5920A4177B007A00792C753F00BA
:1008A000754004E4FDFC1209C6E4F534F5357FC853
:0808B0007E00120A5902081033
:100A5900E4FDFCC3ED9FEC9E5015E4FBFA0BBB00D3
:0F0A6900010ABA01F8BBF4F50DBD00010C80E4E1
:010A7800225B
:0A09C6008B3A8A3B893C8C3D8D3E44
:1009D000E54024FFF542E53F34FFF541C3E54164BE
:1009E000809480403CAE3DAF3E7C007D0A120944BD
:1009F000E54225E0FFE54133AB3AAA3BA93C8F82B3
:100A0000F583EC8DF0120999AE3DAF3E7C007D0A76
:100A10001209448E3D8F3EE542154270BF1541805C
:010A2000BB1A
:010A210022B2
:1008C400020800E493A3F8E493A34003F68001F242
:1008D40008DFF48029E493A3F85407240CC8C33335
:1008E400C4540F4420C8834004F456800146F6DF04
:1008F400E4800B0102040810204080900A22E47E68
:10090400019360BCA3FF543F30E509541FFEE493F8
:10091400A360010ECF54C025E060A840B8E493A3BF
:10092400FAE493A3F8E493A3C8C582C8CAC583CAEA
:10093400F0A3C8C582C8CAC583CADFE9DEE780BEA2
:010A5800009D
:10094400BC000BBE0029EF8DF084FFADF022E4CC97
:10095400F875F008EF2FFFEE33FEEC33FCEE9DEC60
:10096400984005FCEE9DFE0FD5F0E9E4CEFD22EDA6
:10097400F8F5F0EE8420D21CFEADF075F008EF2FF0
:10098400FFED33FD4007985006D5F0F222C398FDE1
:050994000FD5F0EA227E
:10099900F8BB0111E58229F582E5833AF583E8F090
:1009A900E5F0A3F0225009E92582C8F608A6F0224D
:0D09B900BBFE09E92582C8F2E5F008F22234
:00000001FF
