:030000000208D41F
:0C08D400787FE4F6D8FD75813902091B1D
:1009B5001408003F0006005B004F0066006D007DD7
:1009C5000007007F006F101C00FE00FD00FB00F714
:1009D50000EF00DF00BF007F082C000100000000D1
:0609E5000000023403E8EB
:10080000C297E4F580C2937580FFC292F538F5393E
:10081000E4F536F537D290AF37EF25E0242CF80811
:10082000E625E02408F808E6F580C290D291EF258D
:10083000E0241CF808E6F580C2917F027E001209D0
:10084000EC0537E53770020536C39404E5369400AD
:1008500040C30539E539700205386428453870B061
:100860000535E53570020534FFAE347C277D101266
:1008700009608C348D35AE34AF357C037DE81209C8
:10088000608E2C8F2DAE34AF357C037DE81209606D
:100890007E007F64CFCDCFCECCCE1209608E2E8F5E
:1008A0002FAE34AF357C007D641209607E007F0A74
:1008B000CFCDCFCECCCE1209608E308F31AE34AFDB
:1008C000357C007D0A1209608C328D33E4F538F5F1
:0408D00039020810D1
:1009EC00E4FDFCC3ED9FEC9E5015E4FBFA0BBB0041
:0F09FC00010ABA01F8BBF4F50DBD00010C80E44F
:010A0B0022C8
:1008E000020800E493A3F8E493A34003F68001F226
:1008F00008DFF48029E493A3F85407240CC8C33319
:10090000C4540F4420C8834004F456800146F6DFE7
:10091000E4800B01020408102040809009B5E47EB9
:10092000019360BCA3FF543F30E509541FFEE493DC
:10093000A360010ECF54C025E060A840B8E493A3A3
:10094000FAE493A3F8E493A3C8C582C8CAC583CACE
:10095000F0A3C8C582C8CAC583CADFE9DEE780BE86
:0109EB00000B
:10096000BC000BBE0029EF8DF084FFADF022E4CC7B
:10097000F875F008EF2FFFEE33FEEC33FCEE9DEC44
:10098000984005FCEE9DFE0FD5F0E9E4CEFD22ED8A
:10099000F8F5F0EE8420D21CFEADF075F008EF2FD4
:1009A000FFED33FD4007985006D5F0F222C398FDC5
:0509B0000FD5F0EA2262
:00000001FF
